{
  "_format": "hh-sol-artifact-1",
  "contractName": "DVPN",
  "sourceName": "contracts/DVPN.sol",
  "abi": [
    {
      "inputs": [
        {
          "internalType": "uint64",
          "name": "_ratePerSecond",
          "type": "uint64"
        },
        {
          "internalType": "address",
          "name": "_trustedRelayer",
          "type": "address"
        }
      ],
      "stateMutability": "nonpayable",
      "type": "constructor"
    },
    {
      "inputs": [
        {
          "internalType": "bytes32",
          "name": "handle",
          "type": "bytes32"
        },
        {
          "internalType": "address",
          "name": "sender",
          "type": "address"
        }
      ],
      "name": "SenderNotAllowedToUseHandle",
      "type": "error"
    },
    {
      "inputs": [],
      "name": "ZamaProtocolUnsupported",
      "type": "error"
    },
    {
      "anonymous": false,
      "inputs": [
        {
          "indexed": true,
          "internalType": "address",
          "name": "user",
          "type": "address"
        },
        {
          "indexed": true,
          "internalType": "address",
          "name": "provider",
          "type": "address"
        },
        {
          "indexed": false,
          "internalType": "bool",
          "name": "timedOut",
          "type": "bool"
        }
      ],
      "name": "SessionEnded",
      "type": "event"
    },
    {
      "anonymous": false,
      "inputs": [
        {
          "indexed": true,
          "internalType": "address",
          "name": "user",
          "type": "address"
        },
        {
          "indexed": true,
          "internalType": "address",
          "name": "provider",
          "type": "address"
        }
      ],
      "name": "SessionStarted",
      "type": "event"
    },
    {
      "inputs": [],
      "name": "confidentialProtocolId",
      "outputs": [
        {
          "internalType": "uint256",
          "name": "",
          "type": "uint256"
        }
      ],
      "stateMutability": "view",
      "type": "function"
    },
    {
      "inputs": [
        {
          "internalType": "address",
          "name": "_user",
          "type": "address"
        },
        {
          "internalType": "externalEuint64",
          "name": "inputEndTime",
          "type": "bytes32"
        },
        {
          "internalType": "bytes",
          "name": "inputProof",
          "type": "bytes"
        }
      ],
      "name": "endConfidentialSession",
      "outputs": [],
      "stateMutability": "nonpayable",
      "type": "function"
    },
    {
      "inputs": [
        {
          "internalType": "address",
          "name": "",
          "type": "address"
        }
      ],
      "name": "providerBalances",
      "outputs": [
        {
          "internalType": "euint64",
          "name": "",
          "type": "bytes32"
        }
      ],
      "stateMutability": "view",
      "type": "function"
    },
    {
      "inputs": [],
      "name": "ratePerSecond",
      "outputs": [
        {
          "internalType": "uint64",
          "name": "",
          "type": "uint64"
        }
      ],
      "stateMutability": "view",
      "type": "function"
    },
    {
      "inputs": [
        {
          "internalType": "address",
          "name": "_user",
          "type": "address"
        }
      ],
      "name": "resolveTimeoutSession",
      "outputs": [],
      "stateMutability": "nonpayable",
      "type": "function"
    },
    {
      "inputs": [
        {
          "internalType": "address",
          "name": "_user",
          "type": "address"
        },
        {
          "internalType": "address",
          "name": "_nodeProvider",
          "type": "address"
        },
        {
          "internalType": "externalEuint64",
          "name": "inputStartTime",
          "type": "bytes32"
        },
        {
          "internalType": "bytes",
          "name": "inputProof",
          "type": "bytes"
        }
      ],
      "name": "startSession",
      "outputs": [],
      "stateMutability": "nonpayable",
      "type": "function"
    },
    {
      "inputs": [],
      "name": "trustedRelayer",
      "outputs": [
        {
          "internalType": "address",
          "name": "",
          "type": "address"
        }
      ],
      "stateMutability": "view",
      "type": "function"
    }
  ],
  "bytecode": "0x608060405234801561000f575f5ffd5b5060405161135038038061135083398101604081905261002e916102ce565b6100e261003961011f565b80517f9e7b61f58c47dc699ac88507c4f5bb9f121c03808c5676a8078fe583e464970080546001600160a01b03199081166001600160a01b039384161790915560208301517f9e7b61f58c47dc699ac88507c4f5bb9f121c03808c5676a8078fe583e46497018054831691841691909117905560408301517f9e7b61f58c47dc699ac88507c4f5bb9f121c03808c5676a8078fe583e46497028054909216921691909117905550565b600280546001600160a01b0390921668010000000000000000026001600160e01b03199092166001600160401b039093169290921717905561031c565b604080516060810182525f8082526020820181905291810191909152466001036101b8575060408051606080820183525f8083526020808401829052928401528251908101835273ca2e8f1f656cd25c01f05d0b243ab1ecd4a8ffb6815273d82385dada1ae3e969447f20a3164f6213100e75918101919091527377627828a55156b04ac0dc0eb30467f1a552bb039181019190915290565b4662aa36a703610237575060408051606080820183525f8083526020808401829052928401528251908101835273f0ffdc93b7e186bc2f8cb3daa75d86d1930a433d81527392c920834ec8941d2c77d188936e1f7a6f49c1279181019190915273be0e383937d564d7ff0bc3b46c51f0bf8d5c311a9181019190915290565b46617a69036102b5575060408051606080820183525f808352602080840182905292840152825190810183527350157cffd6bbfa2dece204a89ec419c23ef5755d815273e3a9105a3a932253a70f126eb1e3b589c643dd249181019190915273be0e383937d564d7ff0bc3b46c51f0bf8d5c311a9181019190915290565b6040516373cac13b60e01b815260040160405180910390fd5b5f5f604083850312156102df575f5ffd5b82516001600160401b03811681146102f5575f5ffd5b60208401519092506001600160a01b0381168114610311575f5ffd5b809150509250929050565b611027806103295f395ff3fe608060405234801561000f575f5ffd5b506004361061007a575f3560e01c80638596c226116100585780638596c226146100d85780638927b0301461010f5780638eff1a9814610117578063e02b09a814610144575f5ffd5b8063234828f01461007e57806328ac7f2c14610093578063368a107a146100c5575b5f5ffd5b61009161008c366004610e12565b610157565b005b6100b26100a1366004610e12565b60016020525f908152604090205481565b6040519081526020015b60405180910390f35b6100916100d3366004610e70565b610273565b6002546100f7906801000000000000000090046001600160a01b031681565b6040516001600160a01b0390911681526020016100bc565b6100b26104cb565b60025461012b9067ffffffffffffffff1681565b60405167ffffffffffffffff90911681526020016100bc565b610091610152366004610ec6565b6104d9565b6001600160a01b0381165f908152602081905260409020600381015460ff166101c75760405162461bcd60e51b815260206004820152601160248201527f4e6f206163746976652073657373696f6e00000000000000000000000000000060448201526064015b60405180910390fd5b8060020154421161021a5760405162461bcd60e51b815260206004820152601960248201527f54696d656f7574206c696d6974206e6f7420726561636865640000000000000060448201526064016101be565b60038101805460ff191690556001808201546040519182526001600160a01b0390811691908416907f478066ad69337b51c0d98018e2d9cc1f6a6428037df1a9c03732f58001ab65e29060200160405180910390a35050565b6001600160a01b0384165f908152602081905260409020600381015460ff166102de5760405162461bcd60e51b815260206004820152601160248201527f4e6f206163746976652073657373696f6e00000000000000000000000000000060448201526064016101be565b336001600160a01b0386161480610301575060018101546001600160a01b031633145b8061032257506002546801000000000000000090046001600160a01b031633145b61036e5760405162461bcd60e51b815260206004820152600c60248201527f556e617574686f72697a6564000000000000000000000000000000000000000060448201526064016101be565b5f6103ae8585858080601f0160208091040260200160405190810160405280939291908181526020018383808284375f9201919091525061073a92505050565b90505f6103be82845f01546107a9565b6002549091505f906103e49083906103df9067ffffffffffffffff166107d7565b6107ed565b6001858101546001600160a01b03165f908152602091909152604090205490915061040f908261081b565b600185810180546001600160a01b039081165f9081526020939093526040808420949094559054168152205461044490610849565b506001848101546001600160a01b03165f81815260209290925260409091205461046d91610869565b5060038401805460ff1916905560018401546040515f81526001600160a01b03918216918a16907f478066ad69337b51c0d98018e2d9cc1f6a6428037df1a9c03732f58001ab65e29060200160405180910390a35050505050505050565b5f6104d461088c565b905090565b336001600160a01b038616148061050657506002546801000000000000000090046001600160a01b031633145b6105525760405162461bcd60e51b815260206004820152601d60248201527f556e617574686f72697a656420746f2073746172742073657373696f6e00000060448201526064016101be565b6001600160a01b0385165f9081526020819052604090206003015460ff16156105bd5760405162461bcd60e51b815260206004820152601660248201527f53657373696f6e20616c7265616479206163746976650000000000000000000060448201526064016101be565b5f6105fd8484848080601f0160208091040260200160405190810160405280939291908181526020018383808284375f9201919091525061073a92505050565b905061060881610849565b50604080516080810182528281526001600160a01b03871660208201529081016106354262015180610f30565b8152600160209182018190526001600160a01b038981165f9081528084526040808220865181559486015193850180547fffffffffffffffffffffffff00000000000000000000000000000000000000001694909316939093179091559083015160028301556060909201516003909101805460ff19169115159190911790556106be866108c0565b036106f2575f6106cd5f6107d7565b90506106d881610849565b506001600160a01b0386165f908152600160205260409020555b846001600160a01b0316866001600160a01b03167f75e757c3a1c74a0eb2f00fa1bf23bc6a015ab79641ffeeee784625ad27174d6960405160405180910390a3505050505050565b5f81515f146107565761074f838360056108dd565b90506107a3565b825f819003610770576107685f6107d7565b9150506107a3565b61077a81336109fd565b6107a057604051630276b5d960e01b8152600481018290523360248201526044016101be565b90505b92915050565b5f826107bb576107b85f6107d7565b92505b816107cc576107c95f6107d7565b91505b6107a083835f610a9c565b5f6107a38267ffffffffffffffff166005610b7f565b5f826107ff576107fc5f6107d7565b92505b816108105761080d5f6107d7565b91505b6107a083835f610c34565b5f8261082d5761082a5f6107d7565b92505b8161083e5761083b5f6107d7565b91505b6107a083835f610cd1565b5f8161085b576108585f6107d7565b91505b6108658230610d6e565b5090565b5f8261087b576108785f6107d7565b92505b6108858383610d6e565b5090919050565b5f4660010361089b5750600190565b4662aa36a7036108ac575061271190565b46617a69036108bb57505f1990565b505f90565b6001600160a01b0381165f908152600160205260408120546107a3565b7f9e7b61f58c47dc699ac88507c4f5bb9f121c03808c5676a8078fe583e46497015460405163045fc19560e11b81525f917f9e7b61f58c47dc699ac88507c4f5bb9f121c03808c5676a8078fe583e4649700916001600160a01b03909116906308bf832a90610956908890339089908990600401610f6f565b6020604051808303815f875af1158015610972573d5f5f3e3d5ffd5b505050506040513d601f19601f820116820180604052508101906109969190610fc9565b8154604051630f8e573b60e21b8152600481018390523360248201529193506001600160a01b031690633e395cec906044015f604051808303815f87803b1580156109df575f5ffd5b505af11580156109f1573d5f5f3e3d5ffd5b50505050509392505050565b5f807f9e7b61f58c47dc699ac88507c4f5bb9f121c03808c5676a8078fe583e464970080546040516382027b6d60e01b8152600481018790526001600160a01b0386811660248301529293509116906382027b6d90604401602060405180830381865afa158015610a70573d5f5f3e3d5ffd5b505050506040513d601f19601f82011682018060405250810190610a949190610fe0565b949350505050565b5f5f8215610aaf5750600160f81b610ab2565b505f5b7f9e7b61f58c47dc699ac88507c4f5bb9f121c03808c5676a8078fe583e4649701546040516303056db360e31b815260048101879052602481018690526001600160f81b0319831660448201527f9e7b61f58c47dc699ac88507c4f5bb9f121c03808c5676a8078fe583e4649700916001600160a01b03169063182b6d98906064015b6020604051808303815f875af1158015610b51573d5f5f3e3d5ffd5b505050506040513d601f19601f82011682018060405250810190610b759190610fc9565b9695505050505050565b7f9e7b61f58c47dc699ac88507c4f5bb9f121c03808c5676a8078fe583e464970154604051639cd07acb60e01b81525f917f9e7b61f58c47dc699ac88507c4f5bb9f121c03808c5676a8078fe583e4649700916001600160a01b0390911690639cd07acb90610bf49087908790600401611006565b6020604051808303815f875af1158015610c10573d5f5f3e3d5ffd5b505050506040513d601f19601f82011682018060405250810190610a949190610fc9565b5f5f8215610c475750600160f81b610c4a565b505f5b7f9e7b61f58c47dc699ac88507c4f5bb9f121c03808c5676a8078fe583e464970154604051630afe14ad60e31b815260048101879052602481018690526001600160f81b0319831660448201527f9e7b61f58c47dc699ac88507c4f5bb9f121c03808c5676a8078fe583e4649700916001600160a01b0316906357f0a56890606401610b35565b5f5f8215610ce45750600160f81b610ce7565b505f5b7f9e7b61f58c47dc699ac88507c4f5bb9f121c03808c5676a8078fe583e46497015460405163022f65e760e31b815260048101879052602481018690526001600160f81b0319831660448201527f9e7b61f58c47dc699ac88507c4f5bb9f121c03808c5676a8078fe583e4649700916001600160a01b03169063117b2f3890606401610b35565b5f7f9e7b61f58c47dc699ac88507c4f5bb9f121c03808c5676a8078fe583e46497008054604051635ca4b5b160e11b8152600481018690526001600160a01b03858116602483015292935091169063b9496b62906044015f604051808303815f87803b158015610ddc575f5ffd5b505af1158015610dee573d5f5f3e3d5ffd5b50505050505050565b80356001600160a01b0381168114610e0d575f5ffd5b919050565b5f60208284031215610e22575f5ffd5b6107a082610df7565b5f5f83601f840112610e3b575f5ffd5b50813567ffffffffffffffff811115610e52575f5ffd5b602083019150836020828501011115610e69575f5ffd5b9250929050565b5f5f5f5f60608587031215610e83575f5ffd5b610e8c85610df7565b935060208501359250604085013567ffffffffffffffff811115610eae575f5ffd5b610eba87828801610e2b565b95989497509550505050565b5f5f5f5f5f60808688031215610eda575f5ffd5b610ee386610df7565b9450610ef160208701610df7565b935060408601359250606086013567ffffffffffffffff811115610f13575f5ffd5b610f1f88828901610e2b565b969995985093965092949392505050565b808201808211156107a357634e487b7160e01b5f52601160045260245ffd5b60548110610f6b57634e487b7160e01b5f52602160045260245ffd5b9052565b8481526001600160a01b0384166020820152608060408201525f8351806080840152806020860160a085015e5f60a0828501015260a0601f19601f830116840101915050610fc06060830184610f4f565b95945050505050565b5f60208284031215610fd9575f5ffd5b5051919050565b5f60208284031215610ff0575f5ffd5b81518015158114610fff575f5ffd5b9392505050565b82815260408101610fff6020830184610f4f56fea164736f6c634300081b000a",
  "linkReferences": {},
  "deployedLinkReferences": {}
}